:020000040800F2
:1000000000280020F9150008891500088F15000840
:10001000951500089B150008A115000800000000B8
:10002000000000000000000000000000A71500080C
:10003000B315000800000000BF150008CB1500082C
:100040004116000841160008411600084116000834
:100050004116000841160008411600084116000824
:100060004116000841160008411600084116000814
:100070004116000841160008411600084116000804
:1000800041160008411600084116000841160008F4
:1000900041160008411600084116000841160008E4
:1000A00041160008411600084116000841160008D4
:1000B000D91500084116000800000000411600088C
:1000C0004116000800000000000000004116000872
:1000D0000000000041160008411600080000000062
:1000E00041160008411600084116000800000000F3
:1000F0000000000000000000000000000000000000
:0C01000000000000000000005FF808F1A3
:10010C0010B5054C237833B9044B13B10448AFF345
:10011C0000800123237010BD3C0000200000000073
:10012C00702C000808B5034B1BB103490348AFF30F
:10013C00008008BD0000000040000020702C00086A
:10014C0080B483B000AF00237B6033E01E497A6833
:10015C0013469B0013449B000B4400221A601A495F
:10016C007A6813469B0013449B000B440433002213
:10017C001A6015497A6813469B0013449B000B4484
:10018C00083300221A6010497A6813469B00134406
:10019C009B000B440C3300221A7079680A487A6869
:1001AC0013469B0013449B000344103319607B6877
:1001BC0001337B607B68272BC8DD00BF00BF0C3789
:1001CC00BD4680BC704700BF9000002080B483B057
:1001DC0000AF00237B605DE033497A6813469B00D7
:1001EC0013449B000B441B68002B50D02E497A689B
:1001FC0013469B0013449B000B4404331B68002BD9
:10020C0032D129497A6813469B0013449B000B4456
:10021C000C331B780133D8B223497A6813469B0000
:10022C0013449B000B440C3302461A701E497A6827
:10023C0013469B0013449B000B4408331B68002B94
:10024C0025D019497A6813469B0013449B000B4434
:10025C000833196814487A6813469B0013449B00B2
:10026C0003440433196012E00F497A6813469B006B
:10027C0013449B000B4404331B68591E0A487A68CC
:10028C0013469B0013449B000344043319607B68A2
:10029C0001337B607B68272B9EDD00BF00BF0C37D2
:1002AC00BD4680BC704700BF9000002080B582B076
:1002BC0000AF00237B6035E01E497A6813469B0033
:1002CC0013449B000B441B68002B28D019497A68F7
:1002DC0013469B0013449B000B440C331B78002BE0
:1002EC001DD014497A6813469B0013449B000B44A1
:1002FC001B6898470F497A6813469B0013449B0070
:10030C000B440C331B78013BD8B20A497A6813466C
:10031C009B0013449B000B440C3302461A707B6801
:10032C0001337B607B68272BC6DD00BF00BF08371D
:10033C00BD4680BD9000002080B487B000AFF8604F
:10034C00B9607A6000237B613FE024497A691346E7
:10035C009B0013449B000B441B68002B32D11F499C
:10036C007A6913469B0013449B000B44FA681A608D
:10037C001A497A6913469B0013449B000B440433BF
:10038C00BA681A6015497A6913469B0013449B009E
:10039C000B4408337A681A6010497A6913469B003B
:1003AC0013449B000B440C3300221A7079690B48E0
:1003BC007A6913469B0013449B0003441033196065
:1003CC007B6906E07B6901337B617B69272BBCDD94
:1003DC00282318461C37BD4680BC7047900000206F
:1003EC0080B500AF01224FF40041274801F025FCF5
:1003FC0001224FF48041244801F01FFC01224FF4EC
:10040C008071224801F019FC012220211F4801F0C3
:10041C0014FC012240211D4801F00FFC0122802117
:10042C001A4801F00AFC00224FF40061174801F051
:10043C0004FC00224FF48051144801F0FEFB002212
:10044C000121114801F0F9FB002202210E4801F0B4
:10045C00F4FB002204210C4801F0EFFB00220821E0
:10046C00094801F0EAFB00221021074801F0E5FBE6
:10047C0000222021044801F0E0FB00224021024828
:10048C0001F0DBFB00BF80BD000C01400008014007
:10049C0080B584B000AF8D4B1B68002B02D0012BB4
:1004AC0036D00FE1002000F0BBF90346002B00F022
:1004BC000681864B01221A60854B00221A600023AC
:1004CC00FB601DE00023BB6014E08249FA68134610
:1004DC005B001344BA68134451F823107E48FA6841
:1004EC0013465B001344BA68134440F82310BB68EE
:1004FC000133BB60BB68022BE7DDFB680133FB609B
:10050C00FB68012BDEDD734B1B68744A1360D6E06D
:10051C00012000F085F90346002B14D06C4B1B68AE
:10052C006D4A52F8232001326B4941F823206B4B62
:10053C001B680133694A1360684B1B68632B02DD2F
:10054C00664B05221A60012000F088F90346002B47
:10055C0016D05F4B1B68604A52F823205C4B1B681B
:10056C0005325D4941F823205C4B1B6805335B4A1F
:10057C0013605A4B1B68632B02DD584B05221A6023
:10058C00534B1B68544A52F82330632B05DD504BF8
:10059C001B68514A052142F82310002000F040F955
:1005AC000346002B1FD04A4B1B680133484A13608B
:1005BC00474B1B68022B06DD454B4FF0FF321A6090
:1005CC00424B00221A60424B1B68B3F1FF3F03D130
:1005DC00424B00221A6006E03D4B1B683D4A52F824
:1005EC0023303E4A1360022000F01AF90346002B18
:1005FC0067D0374B1B68002B17D1354B1B68364A1D
:10060C00033352F82310324B1B68334A52F8232021
:10061C002F4B1B682F4850F82330D21A2C4B1B68D9
:10062C000A442D49033341F82320294B1B68012B25
:10063C000FD1294B5A69264B1B68274951F82310B7
:10064C00234B1B68234850F82330CB1A1344224AFF
:10065C0053611F4B1B68022B0CD11D4B1B681E4A90
:10066C0052F823201A4B1B681A4951F82330D31A1D
:10067C00194A136100237B601DE000233B6014E0EA
:10068C0015497A6813465B0013443A68134451F8D1
:10069C00231010487A6813465B0013443A681344DD
:1006AC0040F823103B6801333B603B68022BE7DDCD
:1006BC007B6801337B607B68012BDEDD01E000BFD2
:1006CC0000E000BF00BF1037BD4680BD58000020C1
:1006DC005C00002000000020B003002084000020FB
:1006EC0090B583B000AF0023FB717EE0FB79022B49
:1006FC001CD0022B25DC002B02D0012B0BD020E0D0
:10070C00FC794FF400513D4801F080FA03461A463B
:10071C003B4B1A5516E0FC794FF48041374801F0F9
:10072C0075FA03461A46364B1A550BE0FC794FF412
:10073C000041324801F06AFA03461A46304B1A550A
:10074C0000E000BFFB792E4AD25CFB792D49CB5CD3
:10075C009A420BD1FA79FB792B49895C2B4AD154FB
:10076C00FA79FB792649895C274AD154FA79FB79C5
:10077C002349895C234AD154FB79244AD35C012B4D
:10078C0008D1FB79204AD35C002B03D1FB79204A9A
:10079C000121D154FB791C4AD35C002B19D1FB7974
:1007AC001C4A32F81330632B09D8FB79194A32F8FA
:1007BC001320013291B2174A22F8131012E0FB7980
:1007CC00154A0121D1544FF40051144801F04DFA4F
:1007DC0008E0FB790F4A002122F81310FB790E4A2E
:1007EC000021D154FB790133FB71FB79022B7FF68D
:1007FC007DAF00BF00BF0C37BD4690BD0008014067
:10080C006400002068000020600000206C000020C4
:10081C007C000020700000207800002000100140B7
:10082C0080B483B000AF0346FB71FB79022B01D976
:10083C0000230BE0FB79084AD35C002B05D0FB7935
:10084C00054A0021D154012300E0002318460C373F
:10085C00BD4680BC704700BF7C00002080B483B0D4
:10086C0000AF0346FB71FB79022B01D9FF2307E094
:10087C00FB79064AD35C012B0CBF01230023DBB2AE
:10088C0018460C37BD4680BC704700BF780000206E
:10089C0080B500AF01224FF40071054801F0CDF98D
:1008AC0001224FF48061024801F0C7F900BF80BDFE
:1008BC000008014080B500AF01224FF400610548EB
:1008CC0001F0BBF901224FF48051024801F0B5F957
:1008DC0000BF80BD0008014080B500AFFFF7D8FF16
:1008EC00114B1B78002B06D100224FF480610F486E
:1008FC0001F0A3F905E000224FF400710B4801F060
:10090C009CF9094B1B78184600F03EF8064B1B78F7
:10091C000133002B03F00103B8BF5B42DAB2024B88
:10092C001A7000BF80BD00BF7F000020000801408E
:10093C0080B500AFFFF7BEFF114B1B78002B06D123
:10094C0000224FF400610F4801F077F905E0002216
:10095C004FF480510B4801F070F9094B1B78184685
:10096C0000F080F9064B1B780133002B03F00103D8
:10097C00B8BF5B42DAB2024B1A7000BF80BD00BF39
:10098C00800000200008014080B584B000AF786082
:10099C0001220121AF4801F050F901220221AD489A
:1009AC0001F04BF901220421AA4801F046F9012279
:1009BC000821A84801F041F901221021A54801F0B5
:1009CC003CF901222021A34801F037F901224021F2
:1009DC00A04801F032F97B68002B0BD19E4B1B68B1
:1009EC009E4A52F823309E4A82FB03129210DB1768
:1009FC00D21A0FE0984B1B68984A52F82310984B68
:100A0C0083FB01239A10CB17D21A13469B00134475
:100A1C005B00CA1AFA60FB68092B00F2168101A26E
:100A2C0052F823F0590A0008970A0008AD0A00088A
:100A3C00E10A0008150B00083F0B0008730B0008B7
:100A4C00B10B0008D10B0008190C00080022012181
:100A5C00804801F0F2F8002202217E4801F0EDF806
:100A6C00002204217B4801F0E8F800220821794893
:100A7C0001F0E3F800221021764801F0DEF80022A4
:100A8C002021744801F0D9F8E0E0002202217148DD
:100A9C0001F0D3F8002204216E4801F0CEF8D5E025
:100AAC00002201216B4801F0C8F80022022169489C
:100ABC0001F0C3F800220821664801F0BEF80022BC
:100ACC001021644801F0B9F800224021614801F07E
:100ADC00B4F8BBE0002201215E4801F0AEF8002220
:100AEC0002215C4801F0A9F800220421594801F0C8
:100AFC00A4F800220821574801F09FF80022402159
:100B0C00544801F09AF8A1E000220221514801F06A
:100B1C0094F8002204214F4801F08FF80022202184
:100B2C004C4801F08AF8002240214A4801F085F82F
:100B3C008CE000220121474801F07FF800220421BB
:100B4C00444801F07AF800220821424801F075F877
:100B5C00002220213F4801F070F8002240213D483E
:100B6C0001F06BF872E0002201213A4801F065F8BF
:100B7C0000220421374801F060F800220821354892
:100B8C0001F05BF800221021324801F056F80022E7
:100B9C002021304801F051F8002240212D4801F06D
:100BAC004CF853E0002201212A4801F046F80022BB
:100BBC000221284801F041F800220421254801F0C7
:100BCC003CF843E000220121224801F036F80022D3
:100BDC000221204801F031F8002204211D4801F0C7
:100BEC002CF8002208211B4801F027F800221021C4
:100BFC00184801F022F800222021164801F01DF8B7
:100C0C0000224021134801F018F81FE000220121B6
:100C1C00104801F012F8002202210E4801F00DF8E4
:100C2C00002204210B4801F008F800220821094891
:100C3C0001F003F800222021064800F0FEFF0022FC
:100C4C004021044800F0F9FF00E000BF00BF10375E
:100C5C00BD4680BD000C014088000020180000201B
:100C6C006766666680B584B000AF7860012280212B
:100C7C00C64800F0E2FF01224FF48071C34800F037
:100C8C00DCFF01224FF40071C04800F0D6FF0122B6
:100C9C004FF48061BD4800F0D0FF01224FF4006199
:100CAC00BA4800F0CAFF01224FF48051B74800F057
:100CBC00C4FF01224FF40051B44800F0BEFF7B6822
:100CCC00002B0DD1B24B1A68B24B83FB0213991057
:100CDC00D317C91A0B469B000B445B00D31AFB605D
:100CEC007B68012B08D1AA4B1B68AA4A82FB031212
:100CFC009210DB17D31AFB60FB68092B00F24081C2
:100D0C0001A252F823F000BF3D0D0008850D00082C
:100D1C009F0D0008DB0D0008170E0008490E000897
:100D2C00850E0008CD0E0008F10E0008450F0008D6
:100D3C0000228021954800F080FF00224FF4807142
:100D4C00924800F07AFF00224FF400718F4800F0B7
:100D5C0074FF00224FF480618C4800F06EFF00227B
:100D6C004FF40061894800F068FF00224FF4805175
:100D7C00864800F062FF04E100224FF48071834842
:100D8C0000F05BFF00224FF40071804800F055FF2B
:100D9C00F7E0002280217D4800F04FFF00224FF445
:100DAC0080717A4800F049FF00224FF48061774847
:100DBC0000F043FF00224FF40061744800F03DFF47
:100DCC0000224FF40051714800F037FFD9E00022A7
:100DDC0080216E4800F031FF00224FF480716B4887
:100DEC0000F02BFF00224FF40071684800F025FF43
:100DFC0000224FF48061654800F01FFF00224FF481
:100E0C000051624800F019FFBBE000224FF48071E2
:100E1C005E4800F012FF00224FF400715B4800F0B6
:100E2C000CFF00224FF48051584800F006FF0022BE
:100E3C004FF40051554800F000FFA2E00022802141
:100E4C00524800F0FAFE00224FF400714F4800F0B7
:100E5C00F4FE00224FF480614C4800F0EEFE0022BC
:100E6C004FF48051494800F0E8FE00224FF4005145
:100E7C00464800F0E2FE84E000228021434800F066
:100E8C00DCFE00224FF40071404800F0D6FE002238
:100E9C004FF480613D4800F0D0FE00224FF4006119
:100EAC003A4800F0CAFE00224FF48051374800F057
:100EBC00C4FE00224FF40051344800F0BEFE60E046
:100ECC0000228021314800F0B8FE00224FF48071DE
:100EDC002E4800F0B2FE00224FF400712B4800F0B7
:100EEC00ACFE4EE000228021284800F0A6FE002235
:100EFC004FF48071254800F0A0FE00224FF40071E1
:100F0C00224800F09AFE00224FF480611F4800F046
:100F1C0094FE00224FF400611C4800F08EFE00226B
:100F2C004FF48051194800F088FE00224FF4005114
:100F3C00164800F082FE24E000228021134800F0C5
:100F4C007CFE00224FF48071104800F076FE0022E7
:100F5C004FF400710D4800F070FE00224FF48061D8
:100F6C000A4800F06AFE00224FF48051074800F056
:100F7C0064FE00224FF40051044800F05EFE00E0D5
:100F8C0000BF00BF1037BD4680BD00BF000C014044
:100F9C00840000206766666680B483B000AF0023CF
:100FAC007B601DE000233B6014E014497A68134613
:100FBC005B0013443A68134451F8231010487A68C4
:100FCC0013465B0013443A68134440F823103B6803
:100FDC0001333B603B68022BE7DD7B6801337B60B0
:100FEC007B68012BDEDD074B00221A60064B0022CA
:100FFC001A6000BF0C37BD4680BC70470000002053
:10100C0018000020880000208C00002080B500AF64
:10101C00264B1B68264A52F82330002B08DD234B45
:10102C001B68234A52F82320013A214941F8232016
:10103C001E4B1B681E4A52F82330002B04DC1B4B42
:10104C001B680133194A13601A4B1B68184A033387
:10105C0052F82330002B0ADD164B1B681449DA1C9E
:10106C0051F82220013A1249033341F82320114B45
:10107C001B680F4A033352F82330002B04DC0D4B52
:10108C001B6801330B4A1360084B1B68022B01DDF4
:10109C00FFF782FF054B1B68184600F00DF8054B57
:1010AC001B68184600F05CF800BF80BD880000206B
:1010BC00180000208C00002080B582B000AF786052
:1010CC007B68022B09D07B68022B3FDC7B68002BF2
:1010DC0029D07B68012B13D038E000224FF400415B
:1010EC001D4800F0AAFD01224FF480411A4800F07F
:1010FC00A4FD01224FF48071184800F09EFD26E0FB
:10110C0001224FF40041144800F097FD00224FF4E7
:10111C008041114800F091FD01224FF480710F487D
:10112C0000F08BFD13E001224FF400410A4800F05F
:10113C0084FD01224FF48041074800F07EFD00221F
:10114C004FF48071054800F078FD00E000BF00BF4F
:10115C000837BD4680BD00BF000C014000080140AF
:10116C0080B582B000AF78607B68022B19D07B68A9
:10117C00022B36DC7B68002B03D07B68012B20D044
:10118C002FE000222021194800F057FD01224021B8
:10119C00164800F052FD01228021144800F04DFD4C
:1011AC0020E001222021114800F047FD00224021BF
:1011BC000E4800F042FD012280210C4800F03DFD5C
:1011CC0010E001222021094800F037FD01224021C6
:1011DC00064800F032FD00228021044800F02DFD6D
:1011EC0000E000BF00BF0837BD4680BD00080140CD
:1011FC0080B500AF4FF40051024800F036FD00BF3F
:10120C0080BD00BF0010014080B582B000AF786097
:10121C007B681B68B3F1804F01D1FEF7D7FF00BF8D
:10122C000837BD4680BD000080B500AF00F004FA61
:10123C0000F03AF800F0C0F800F072F8FEF780FF0A
:10124C00FFF7CEF8114801F055F96422002110483F
:10125C00FFF772F8322200210E48FFF76DF83222A8
:10126C0000210D48FFF768F80A2200210B48FFF710
:10127C0063F8012200210A48FFF75EF8642200217E
:10128C000848FFF759F8FFF711F8FCE7C8030020EE
:10129C0019100008E50800083D0900089D04000825
:1012AC00ED060008FD11000880B590B000AF07F105
:1012BC00180328220021184601F0CCFC3B1D00220B
:1012CC001A605A609A60DA601A610223BB610123CA
:1012DC00BB621023FB6200237B6307F118031846E3
:1012EC0000F0DCFC0346002B01D000F0EBF80F23E0
:1012FC007B600023BB600023FB6000233B61002369
:10130C007B613B1D0021184600F048FF0346002B73
:10131C0001D000F0D7F800BF4037BD4680BD0000BB
:10132C0080B586B000AF07F1080300221A605A603E
:10133C009A60DA603B4600221A605A601D4B4FF0EF
:10134C0080421A601B4B41F63F725A60194B0022C7
:10135C009A60184B0922DA60164B00221A61154B61
:10136C0000229A61134801F075F80346002B01D056
:10137C0000F0A8F84FF48053BB6007F1080319463E
:10138C000C4801F0F3F90346002B01D000F09AF859
:10139C0000233B6000237B603B461946054801F067
:1013AC00CBFB0346002B01D000F08CF800BF1837A4
:1013BC00BD4680BDC803002080B588B000AF07F1E2
:1013CC00100300221A605A609A60DA60394B9B69EC
:1013DC00384A43F010039361364B9B6903F01003BA
:1013EC00FB60FB68334B9B69324A43F00403936107
:1013FC00304B9B6903F00403BB60BB682D4B9B69AE
:10140C002C4A43F0080393612A4B9B6903F00803B1
:10141C007B607B6800224FF40051274800F00DFCE4
:10142C0000224FF4FF51254800F007FC00224FF634
:10143C00FF71234800F001FC4FF400533B61012382
:10144C007B610023BB610223FB6107F1100319468A
:10145C00194800F061FA4FF4FF533B6101237B61A3
:10146C000023BB610223FB6107F1100319461348EB
:10147C0000F052FA4FF6FF733B6101237B610023AE
:10148C00BB610223FB6107F1100319460C4800F005
:10149C0043FA4FF460433B6100237B610123BB6142
:1014AC0007F110031946054800F036FA00BF203743
:1014BC00BD4680BD001002400010014000080140F4
:1014CC00000C014080B400AF72B600BFFEE7000014
:1014DC0080B485B000AF154B9B69144A43F00103EF
:1014EC009361124B9B6903F00103BB60BB680F4B0C
:1014FC00DB690E4A43F08053D3610C4BDB6903F07C
:10150C0080537B607B680A4B5B68FB60FB6823F055
:10151C00E063FB60FB6843F08063FB60044AFB689C
:10152C00536000BF1437BD4680BC704700100240AA
:10153C000000014080B584B000AF78607B681B6808
:10154C00B3F1804F13D10C4BDB690B4A43F0010311
:10155C00D361094BDB6903F00103FB60FB680022DC
:10156C0000211C2000F0A1F91C2000F0BAF900BFEA
:10157C001037BD4680BD00BF0010024080B400AFE4
:10158C00FEE780B400AFFEE780B400AFFEE780B4A6
:10159C0000AFFEE780B400AFFEE780B400AF00BF41
:1015AC00BD4680BC704780B400AF00BFBD4680BC58
:1015BC00704780B400AF00BFBD4680BC704780B59B
:1015CC0000AF00F07FF800BF80BD000080B500AF19
:1015DC00024800F0DBFF00BF80BD00BFC803002045
:1015EC0080B400AF00BFBD4680BC7047FFF7F8FF6A
:1015FC000B480C490C4A002302E0D458C450043365
:10160C00C4188C42F9D3094A094C002301E0136039
:10161C000432A242FBD301F0F9FAFFF705FE704742
:10162C00000000203C000020B42C00083C000020EE
:10163C0014040020FEE7000080B500AF084B1B68C7
:10164C00074A43F010031360032000F023F90F2026
:10165C0000F008F8FFF73CFF0023184680BD00BFE0
:10166C000020024080B582B000AF7860124B1A683F
:10167C00124B1B7819464FF47A73B3FBF1F3B2FBA0
:10168C00F3F3184600F03BF90346002B01D001237D
:10169C000EE07B680F2B0AD8002279684FF0FF30E0
:1016AC0000F003F9064A7B681360002300E0012375
:1016BC0018460837BD4680BD300000203800002099
:1016CC003400002080B400AF054B1B781A46054B44
:1016DC001B681344034A136000BFBD4680BC7047AF
:1016EC00380000201004002080B400AF024B1B68AF
:1016FC001846BD4680BC70471004002080B485B0ED
:10170C0000AF78607B6803F00703FB600C4BDB6871
:10171C00BB60BA684FF6FF031340BB60FB681A024C
:10172C00BB68134343F0BF6343F40033BB60044A0C
:10173C00BB68D36000BF1437BD4680BC704700BF88
:10174C0000ED00E080B400AF044BDB681B0A03F033
:10175C0007031846BD4680BC704700BF00ED00E093
:10176C0080B483B000AF0346FB7197F90730002BB0
:10177C000BDBFB7903F01F02064997F907305B0975
:10178C00012000FA02F241F8232000BF0C37BD46BD
:10179C0080BC704700E100E080B483B000AF03462A
:1017AC003960FB7197F90730002B0ADB3B68DAB222
:1017BC000C4997F907301201D2B20B4483F800237D
:1017CC000AE03B68DAB20849FB7903F00F03043BEB
:1017DC001201D2B20B441A7600BF0C37BD4680BC46
:1017EC00704700BF00E100E000ED00E080B489B07C
:1017FC0000AFF860B9607A60FB6803F00703FB6127
:10180C00FB69C3F10703042B28BF0423BB61FB69ED
:10181C000433062B02D9FB69033B00E000237B61F8
:10182C004FF0FF32BB6902FA03F3DA43BB681A408C
:10183C007B699A404FF0FF317B6901FA03F3D9437E
:10184C007B680B40134318462437BD4680BC704759
:10185C0080B582B000AF78607B68013BB3F1807FCC
:10186C0001D301230FE00A4A7B68013B53600F212F
:10187C004FF0FF30FFF790FF054B00229A60044BAE
:10188C0007221A60002318460837BD4680BD00BFEA
:10189C0010E000E080B582B000AF78607868FFF7A8
:1018AC002DFF00BF0837BD4680BD80B586B000AFA8
:1018BC000346B9607A60FB7300237B61FFF742FF3C
:1018CC0078617A68B9687869FFF790FF024697F9F2
:1018DC000F3011461846FFF75FFF00BF1837BD46A3
:1018EC0080BD80B582B000AF0346FB7197F907301D
:1018FC001846FFF735FF00BF0837BD4680BD80B5E1
:10190C0082B000AF78607868FFF7A2FF03461846F4
:10191C000837BD4680BD000080B48BB000AF786046
:10192C00396000237B6200233B6248E101227B6A21
:10193C0002FA03F3FB613B681B68FA691340BB6155
:10194C00BA69FB699A4240F037813B685B68A34AED
:10195C0093425ED0A14A934275D8A14A934258D083
:10196C009F4A93426FD89F4A934252D09D4A9342CA
:10197C0069D89D4A93424CD09B4A934263D89B4A68
:10198C00934246D0994A93425DD8122B2AD8122BF7
:10199C0059D801A252F823F01F1A0008F9190008AF
:1019AC000B1A00084D1A0008531A0008531A0008A5
:1019BC00531A0008531A0008531A0008531A000847
:1019CC00531A0008531A0008531A0008531A000837
:1019DC00531A0008531A0008531A0008011A000879
:1019EC00151A0008824A934213D02CE03B68DB683E
:1019FC003B6229E03B68DB6804333B6224E03B68D4
:101A0C00DB6808333B621FE03B68DB680C333B62EE
:101A1C001AE03B689B68002B02D104233B6213E065
:101A2C003B689B68012B05D108233B627B68FA69F4
:101A3C001A6109E008233B627B68FA695A6103E08A
:101A4C0000233B6200E000BFBB69FF2B01D87B6821
:101A5C0001E07B6804337B61BB69FF2B02D87B6A96
:101A6C009B0002E07B6A083B9B003B617B691A6828
:101A7C000F213B6901FA03F3DB431A40396A3B69D6
:101A8C0001FA03F31A437B691A603B685B6803F045
:101A9C008053002B00F09080564B9B69554A43F0C5
:101AAC0001039361534B9B6903F00103BB60BB685B
:101ABC00514A7B6A9B08023352F82330FB607B6AE5
:101ACC0003F003039B000F2202FA03F3DB43FA68D3
:101ADC001340FB607B68494A93420DD07B68484AAF
:101AEC00934207D07B68474A934201D1022304E01A
:101AFC00032302E0012300E000237A6A02F00302D0
:101B0C0092009340FA681343FB603B497B6A9B0845
:101B1C000233FA6841F823203B685B6803F48013B6
:101B2C00002B06D0384B9A683749BB6913438B603E
:101B3C0006E0354B9A68BB69DB43334913408B6035
:101B4C003B685B6803F40013002B06D02E4BDA685D
:101B5C002D49BB691343CB6006E02B4BDA68BB699C
:101B6C00DB4329491340CB603B685B6803F40033CB
:101B7C00002B06D0244B5A682349BB6913434B6096
:101B8C0006E0214B5A68BB69DB431F4913404B608D
:101B9C003B685B6803F48033002B06D01A4B1A6841
:101BAC001949BB6913430B6006E0174B1A68BB69F4
:101BBC00DB43154913400B607B6A01337B623B6846
:101BCC001A687B6A22FA03F3002B7FF4AFAE00BFD6
:101BDC0000BF2C37BD4680BC704700BF00003210E0
:101BEC000000311000002210000021100000121023
:101BFC0000001110001002400000014000080140DC
:101C0C00000C0140001001400004014080B485B07C
:101C1C0000AF78600B467B807B689A687B881340AA
:101C2C00002B02D00123FB7301E00023FB73FB7B31
:101C3C0018461437BD4680BC704780B483B000AFE3
:101C4C0078600B467B8013467B707B78002B03D02F
:101C5C007A887B681A6103E07B881A047B681A61B6
:101C6C0000BF0C37BD4680BC704780B485B000AF58
:101C7C0078600B467B807B68DB68FB607A88FB684E
:101C8C0013401A04FB68D9437B880B401A437B68CA
:101C9C001A6100BF1437BD4680BC704780B586B052
:101CAC0000AF78607B68002B01D101236CE27B686C
:101CBC001B6803F00103002B00F08780924B5B68DC
:101CCC0003F00C03042B0CD08F4B5B6803F00C035C
:101CDC00082B12D18C4B5B6803F48033B3F5803F37
:101CEC000BD1894B1B6803F40033002B6CD07B6841
:101CFC005B68002B68D1012346E27B685B68B3F517
:101D0C00803F06D1804B1B687F4A43F480331360BD
:101D1C002EE07B685B68002B0CD17B4B1B687A4AEE
:101D2C0023F480331360784B1B68774A23F48023A9
:101D3C0013601DE07B685B68B3F5A02F0CD1724B70
:101D4C001B68714A43F4802313606F4B1B686E4A07
:101D5C0043F4803313600BE06B4B1B686A4A23F42B
:101D6C0080331360684B1B68674A23F4802313602D
:101D7C007B685B68002B13D0FFF7B6FC386108E07A
:101D8C00FFF7B2FC02463B69D31A642B01D903233B
:101D9C00FAE15D4B1B6803F40033002BF0D014E028
:101DAC00FFF7A2FC386108E0FFF79EFC02463B6996
:101DBC00D31A642B01D90323E6E1534B1B6803F4BC
:101DCC000033002BF0D100E000BF7B681B6803F0F0
:101DDC000203002B63D04C4B5B6803F00C03002B0D
:101DEC000BD0494B5B6803F00C03082B1CD1464B02
:101DFC005B6803F48033002B16D1434B1B6803F054
:101E0C000203002B05D07B681B69012B01D0012339
:101E1C00BAE13D4B1B6823F0F8027B685B69DB0081
:101E2C00394913430B603AE07B681B69002B20D0C7
:101E3C00364B01221A60FFF757FC386108E0FFF7B8
:101E4C0053FC02463B69D31A022B01D903239BE1B5
:101E5C002D4B1B6803F00203002BF0D02A4B1B68A0
:101E6C0023F0F8027B685B69DB00274913430B60A6
:101E7C0015E0264B00221A60FFF736FC386108E0AB
:101E8C00FFF732FC02463B69D31A022B01D903231C
:101E9C007AE11D4B1B6803F00203002BF0D17B6829
:101EAC001B6803F00803002B3AD07B689B69002B5E
:101EBC0019D0174B01221A60FFF716FC386108E0A5
:101ECC00FFF712FC02463B69D31A022B01D90323FC
:101EDC005AE10D4B5B6A03F00203002BF0D001209A
:101EEC0000F09AFA1CE00A4B00221A60FFF7FCFB88
:101EFC0038610FE0FFF7F8FB02463B69D31A022B5F
:101F0C0008D9032340E100BF001002400000424208
:101F1C00800442429E4B5B6A03F00203002BE9D122
:101F2C007B681B6803F00403002B00F0A6800023E1
:101F3C00FB75974BDB6903F08053002B0DD1944B51
:101F4C00DB69934A43F08053D361914BDB6903F017
:101F5C008053BB60BB680123FB758E4B1B6803F47D
:101F6C008073002B18D18B4B1B688A4A43F4807307
:101F7C001360FFF7B9FB386108E0FFF7B5FB0246C9
:101F8C003B69D31A642B01D90323FDE0814B1B68F9
:101F9C0003F48073002BF0D07B68DB68012B06D137
:101FAC007B4B1B6A7A4A43F0010313622DE07B687A
:101FBC00DB68002B0CD1764B1B6A754A23F00103AE
:101FCC001362734B1B6A724A23F0040313621CE006
:101FDC007B68DB68052B0CD16D4B1B6A6C4A43F09C
:101FEC00040313626A4B1B6A694A43F001031362D0
:101FFC000BE0674B1B6A664A23F001031362644BC8
:10200C001B6A634A23F0040313627B68DB68002BB2
:10201C0015D0FFF769FB38610AE0FFF765FB024654
:10202C003B69D31A41F28832934201D90323ABE0C6
:10203C00574B1B6A03F00203002BEED014E0FFF7A2
:10204C0053FB38610AE0FFF74FFB02463B69D31A9A
:10205C0041F28832934201D9032395E04C4B1B6A21
:10206C0003F00203002BEED1FB7D012B05D1484B75
:10207C00DB69474A23F08053D3617B68DB69002B13
:10208C0000F08180424B5B6803F00C03082B61D09D
:10209C007B68DB69022B46D13F4B00221A60FFF7AD
:1020AC0023FB386108E0FFF71FFB02463B69D31A9C
:1020BC00022B01D9032367E0354B1B6803F0007337
:1020CC00002BF0D17B681B6AB3F5803F08D1304BF5
:1020DC005B6823F400327B689B682D4913434B608B
:1020EC002B4B5B6823F474127B68196A7B685B6A00
:1020FC000B43274913434B60274B01221A60FFF710
:10210C00F3FA386108E0FFF7EFFA02463B69D31A9D
:10211C00022B01D9032337E01D4B1B6803F000731E
:10212C00002BF0D02FE01C4B00221A60FFF7DCFADA
:10213C00386108E0FFF7D8FA02463B69D31A022B44
:10214C0001D9032320E0124B1B6803F00073002B12
:10215C00F0D118E07B68DB69012B01D1012313E07E
:10216C000B4B5B68FB60FB6803F480327B681B6A7B
:10217C009A4206D1FB6803F470127B685B6A9A4240
:10218C0001D0012300E0002318461837BD4680BD5E
:10219C0000100240007000406000424280B584B0E4
:1021AC0000AF786039607B68002B01D10123D0E04F
:1021BC006A4B1B6803F007033A689A4210D9674BC5
:1021CC001B6823F0070265493B6813430B60634BA4
:1021DC001B6803F007033A689A4201D00123B8E068
:1021EC007B681B6803F00203002B20D07B681B6804
:1021FC0003F00403002B05D0594B5B68584A43F499
:10220C00E06353607B681B6803F00803002B05D068
:10221C00534B5B68524A43F460535360504B5B68BA
:10222C0023F0F0027B689B684D4913434B607B683D
:10223C001B6803F00103002B40D07B685B68012B0B
:10224C0007D1474B1B6803F40033002B15D1012336
:10225C007FE07B685B68022B07D1414B1B6803F066
:10226C000073002B09D1012373E03D4B1B6803F075
:10227C000203002B01D101236BE0394B5B6823F087
:10228C0003027B685B68364913434B60FFF72CFAFB
:10229C00F8600AE0FFF728FA0246FB68D31A41F20D
:1022AC008832934201D9032353E02D4B5B6803F032
:1022BC000C027B685B689B009A42EBD1274B1B6836
:1022CC0003F007033A689A4210D2244B1B6823F0A0
:1022DC00070222493B6813430B60204B1B6803F039
:1022EC0007033A689A4201D0012332E07B681B68ED
:1022FC0003F00403002B08D0194B5B6823F4E06255
:10230C007B68DB68164913434B607B681B6803F0E2
:10231C000803002B09D0124B5B6823F460527B68D6
:10232C001B69DB000E4913434B6000F021F8024699
:10233C000B4B5B681B0903F00F030A49CB5C22FAB9
:10234C0003F3094A1360094B1B681846FFF78AF917
:10235C00002318461037BD4680BD00BF0020024048
:10236C0000100240882C00083000002034000020AF
:10237C0080B487B000AF0023FB600023BB60002358
:10238C007B6100237B6000233B611E4B5B68FB6021
:10239C00FB6803F00C03042B02D0082B03D027E0BE
:1023AC00194B3B6127E0FB689B0C03F00F03174AAA
:1023BC00D35C7B60FB6803F48033002B10D0114B93
:1023CC005B685B0C03F00103114AD35CBB607B6858
:1023DC000D4A02FB03F2BB68B2FBF3F37B6104E032
:1023EC007B680C4A02FB03F37B617B693B6102E077
:1023FC00054B3B6100BF3B6918461C37BD4680BC92
:10240C00704700BF0010024000127A00982C0008A0
:10241C00A82C000800093D0080B485B000AF78609E
:10242C000A4B1B680A4AA2FB03235B0A7A6802FB6D
:10243C0003F3FB6000BFFB685A1EFA60002BF9D156
:10244C0000BF00BF1437BD4680BC70473000002071
:10245C00D34D621080B582B000AF78607B68002BE2
:10246C0001D1012341E07B6893F83D30DBB2002BB6
:10247C0006D17B68002283F83C207868FFF75AF875
:10248C007B68022283F83D207B681A687B680433E2
:10249C001946104600F056FA7B68012283F8462054
:1024AC007B68012283F83E207B68012283F83F2061
:1024BC007B68012283F840207B68012283F841204D
:1024CC007B68012283F842207B68012283F8432039
:1024DC007B68012283F844207B68012283F8452025
:1024EC007B68012283F83D20002318460837BD463F
:1024FC0080BD000080B485B000AF78607B6893F835
:10250C003D30DBB2012B01D0012335E07B68022288
:10251C0083F83D207B681B68DA687B681B6842F097
:10252C000102DA607B681B68164A934209D07B680B
:10253C001B68B3F1804F04D07B681B68124A93422E
:10254C0011D17B681B689B6803F00703FB60FB6879
:10255C00062B10D07B681B681A687B681B6842F0DE
:10256C0001021A6007E07B681B681A687B681B68AD
:10257C0042F001021A60002318461437BD4680BC95
:10258C00704700BF002C01400004004080B584B0AF
:10259C0000AF78607B681B68DB68FB607B681B683E
:1025AC001B69BB60BB6803F00203002B20D0FB68E7
:1025BC0003F00203002B1BD07B681B686FF0020238
:1025CC001A617B6801221A777B681B689B6903F090
:1025DC000303002B03D0786800F098F905E07868C5
:1025EC0000F08BF9786800F09AF97B6800221A7772
:1025FC00BB6803F00403002B20D0FB6803F004033A
:10260C00002B1BD07B681B686FF004021A617B687F
:10261C0002221A777B681B689B6903F44073002BBA
:10262C0003D0786800F072F905E0786800F065F97D
:10263C00786800F074F97B6800221A77BB6803F0A5
:10264C000803002B20D0FB6803F00803002B1BD0E1
:10265C007B681B686FF008021A617B6804221A778A
:10266C007B681B68DB6903F00303002B03D07868DD
:10267C0000F04CF905E0786800F03FF9786800F05C
:10268C004EF97B6800221A77BB6803F01003002B0D
:10269C0020D0FB6803F01003002B1BD07B681B6859
:1026AC006FF010021A617B6808221A777B681B682E
:1026BC00DB6903F44073002B03D0786800F026F933
:1026CC0005E0786800F019F9786800F028F97B6863
:1026DC0000221A77BB6803F00103002B0CD0FB68B7
:1026EC0003F00103002B07D07B681B686FF001021D
:1026FC001A617868FEF788FDBB6803F08003002B35
:10270C000CD0FB6803F08003002B07D07B681B68A0
:10271C006FF080021A61786800F06FFABB6803F002
:10272C004003002B0CD0FB6803F04003002B07D0B8
:10273C007B681B686FF040021A61786800F0F8F84B
:10274C00BB6803F02003002B0CD0FB6803F02003C4
:10275C00002B07D07B681B686FF020021A61786829
:10276C0000F042FA00BF1037BD4680BD80B584B082
:10277C0000AF786039600023FB737B6893F83C30C2
:10278C00012B01D10223B4E07B68012283F83C20A9
:10279C007B68022283F83D207B681B689B68BB60CA
:1027AC00BB6823F07703BB60BB6823F47F43BB603B
:1027BC007B681B68BA689A603B681B68B3F5005F5E
:1027CC003ED0B3F5005F00F28780B3F5805F00F078
:1027DC008680B3F5805F7FD8702B1AD0702B7BD896
:1027EC00602B50D0602B77D8502B3CD0502B73D80B
:1027FC00402B58D0402B6FD8302B64D0302B6BD85B
:10280C00202B60D0202B67D8002B5CD0102B5AD0FB
:10281C0062E07B6818683B6899683B685A683B685B
:10282C00DB6800F06AF97B681B689B68BB60BB685F
:10283C0043F07703BB607B681B68BA689A604FE013
:10284C007B6818683B6899683B685A683B68DB682A
:10285C0000F053F97B681B689A687B681B6842F42C
:10286C0080429A603CE07B6818683B6859683B681A
:10287C00DB681A4600F0CAF87B681B6850211846C2
:10288C0000F021F92CE07B6818683B6859683B68BC
:10289C00DB681A4600F0E8F87B681B686021184674
:1028AC0000F011F91CE07B6818683B6859683B68BC
:1028BC00DB681A4600F0AAF87B681B6840211846B2
:1028CC0000F001F90CE07B681A683B681B6819463C
:1028DC00104600F0F8F803E00123FB7300E000BFA2
:1028EC007B68012283F83D207B68002283F83C2022
:1028FC00FB7B18461037BD4680BD80B483B000AF5B
:10290C00786000BF0C37BD4680BC704780B483B084
:10291C0000AF786000BF0C37BD4680BC704780B4F8
:10292C0083B000AF786000BF0C37BD4680BC7047E9
:10293C0080B483B000AF786000BF0C37BD4680BC5C
:10294C007047000080B485B000AF786039607B6858
:10295C001B68FB607B682B4A934207D07B68B3F102
:10296C00804F03D07B68284A934208D1FB6823F040
:10297C007003FB603B685B68FA681343FB607B6821
:10298C00204A934207D07B68B3F1804F03D07B6819
:10299C001D4A934208D1FB6823F44073FB603B68EB
:1029AC00DB68FA681343FB60FB6823F080023B682A
:1029BC005B691343FB607B68FA681A603B689A6832
:1029CC007B68DA623B681A687B689A627B680D4A9E
:1029DC00934203D13B681A697B681A637B680122B6
:1029EC005A617B681B6903F00103002B05D07B68DF
:1029FC001B6923F001027B681A6100BF1437BD46C6
:102A0C0080BC7047002C01400004004080B487B0AB
:102A1C0000AFF860B9607A60FB681B6A7B61FB6889
:102A2C001B6A23F00102FB681A62FB689B693B611D
:102A3C003B6923F0F0033B617B681B013A6913434C
:102A4C003B617B6923F00A037B617A69BB681343A2
:102A5C007B61FB683A699A61FB687A691A6200BF0C
:102A6C001C37BD4680BC704780B487B000AFF8609F
:102A7C00B9607A60FB681B6A7B61FB681B6A23F098
:102A8C001002FB681A62FB689B693B613B6923F48B
:102A9C0070433B617B681B033A6913433B617B6961
:102AAC0023F0A0037B61BB681B017A6913437B6134
:102ABC00FB683A699A61FB687A691A6200BF1C3735
:102ACC00BD4680BC704780B485B000AF786039607B
:102ADC007B689B68FB60FB6823F07003FB603A68C3
:102AEC00FB68134343F00703FB607B68FA689A604A
:102AFC0000BF1437BD4680BC704780B487B000AFB0
:102B0C00F860B9607A603B60FB689B687B617B69AD
:102B1C0023F47F437B613B681A027B681A43BB68D2
:102B2C0013437A6913437B61FB687A699A6000BF2F
:102B3C001C37BD4680BC704780B485B000AF786050
:102B4C0039607B6893F83C30012B01D1022341E0C2
:102B5C007B68012283F83C207B68022283F83D20AD
:102B6C007B681B685B68FB607B681B689B68BB6051
:102B7C00FB6823F07003FB603B681B68FA68134327
:102B8C00FB607B681B68FA685A607B681B68144A98
:102B9C00934209D07B681B68B3F1804F04D07B68EB
:102BAC001B68104A93420CD1BB6823F08003BB60B6
:102BBC003B685B68BA681343BB607B681B68BA6888
:102BCC009A607B68012283F83D207B68002283F8A1
:102BDC003C20002318461437BD4680BC704700BF0C
:102BEC00002C01400004004080B483B000AF78603A
:102BFC0000BF0C37BD4680BC704780B483B000AFBB
:102C0C00786000BF0C37BD4680BC704770B500269D
:102C1C000C4D0D4C641BA410A64209D100F022F8F7
:102C2C0000260A4D0A4C641BA410A64205D170BDA7
:102C3C0055F8043B98470136EEE755F8043B9847A6
:102C4C000136F2E7AC2C0008AC2C0008AC2C0008C8
:102C5C00B02C000803460244934200D1704703F89D
:102C6C00011BF9E7F8B500BFF8BC08BC9E467047DD
:0C2C7C00F8B500BFF8BC08BC9E467047CD
:102C88000000000000000000010203040607080914
:102C980002030405060708090A0B0C0D0E0F101095
:042CA8000102000025
:042CAC0031010008EA
:042CB0000D0100080A
:102CB4000300000001000000040000000400000004
:102CC40003000000010000000300000001000000F8
:102CD40004000000040000000300000001000000E4
:0C2CE40000127A00100000000100000047
:04000005080015F9E1
:00000001FF
