:020000040800F2
:1000000000280020E9130008B5120008BB12000800
:10001000C1120008C7120008CD120008000000003D
:10002000000000000000000000000000D3120008E3
:10003000DF12000800000000EB120008F7120008B1
:10004000311400083114000831140008311400087C
:10005000311400083114000831140008311400086C
:10006000311400083114000831140008311400085C
:10007000311400083114000831140008311400084C
:10008000311400083114000831140008311400083C
:10009000311400083114000831140008311400082C
:1000A000311400083114000831140008311400081C
:1000B0000513000831140008000000003114000886
:1000C0003114000800000000000000003114000896
:1000D0000000000031140008311400080000000086
:1000E0003114000831140008311400080000000029
:1000F0000000000000000000000000000000000000
:0C01000000000000000000005FF808F1A3
:10010C0010B5054C237833B9044B13B10448AFF345
:10011C0000800123237010BD40000020000000006F
:10012C00602A000808B5034B1BB103490348AFF321
:10013C00008008BD0000000044000020602A000878
:10014C0080B584B000AF8D4B1B68002B02D0012B07
:10015C0036D00FE1002000F0BBF90346002B00F075
:10016C000681864B01221A60854B00221A600023FF
:10017C00FB601DE00023BB6014E08249FA68134663
:10018C005B001344BA68134451F823107E48FA6894
:10019C0013465B001344BA68134440F82310BB6841
:1001AC000133BB60BB68022BE7DDFB680133FB60EE
:1001BC00FB68012BDEDD734B1B68744A1360D6E0C1
:1001CC00012000F085F90346002B14D06C4B1B6802
:1001DC006D4A52F8232001326B4941F823206B4BB6
:1001EC001B680133694A1360684B1B68632B02DD83
:1001FC00664B05221A60012000F088F90346002B9B
:10020C0016D05F4B1B68604A52F823205C4B1B686E
:10021C0005325D4941F823205C4B1B6805335B4A72
:10022C0013605A4B1B68632B02DD584B05221A6076
:10023C00534B1B68544A52F82330632B05DD504B4B
:10024C001B68514A052142F82310002000F040F9A8
:10025C000346002B1FD04A4B1B680133484A1360DE
:10026C00474B1B68022B06DD454B4FF0FF321A60E3
:10027C00424B00221A60424B1B68B3F1FF3F03D183
:10028C00424B00221A6006E03D4B1B683D4A52F877
:10029C0023303E4A1360022000F01AF90346002B6B
:1002AC0067D0374B1B68002B17D1354B1B68364A70
:1002BC00033352F82310324B1B68334A52F8232075
:1002CC002F4B1B682F4850F82330D21A2C4B1B682D
:1002DC000A442D49033341F82320294B1B68012B79
:1002EC000FD1294B5A69264B1B68274951F823100B
:1002FC00234B1B68234850F82330CB1A1344224A53
:10030C0053611F4B1B68022B0CD11D4B1B681E4AE3
:10031C0052F823201A4B1B681A4951F82330D31A70
:10032C00194A136100237B601DE000233B6014E03D
:10033C0015497A6813465B0013443A68134451F824
:10034C00231010487A6813465B0013443A68134430
:10035C0040F823103B6801333B603B68022BE7DD20
:10036C007B6801337B607B68012BDEDD01E000BF25
:10037C0000E000BF00BF1037BD4680BD5C00002010
:10038C006000002000000020A40000208800002055
:10039C0090B583B000AF0023FB717EE0FB79022B9C
:1003AC001CD0022B25DC002B02D0012B0BD020E023
:1003BC00FC794FF400513D4801F020FB03461A46EE
:1003CC003B4B1A5516E0FC794FF48041374801F04D
:1003DC0015FB03461A46364B1A550BE0FC794FF4C5
:1003EC000041324801F00AFB03461A46304B1A55BD
:1003FC0000E000BFFB792E4AD25CFB792D49CB5C27
:10040C009A420BD1FA79FB792B49895C2B4AD1544E
:10041C00FA79FB792649895C274AD154FA79FB7918
:10042C002349895C234AD154FB79244AD35C012BA0
:10043C0008D1FB79204AD35C002B03D1FB79204AED
:10044C000121D154FB791C4AD35C002B19D1FB79C7
:10045C001C4A32F81330632B09D8FB79194A32F84D
:10046C001320013291B2174A22F8131012E0FB79D3
:10047C00154A0121D1544FF40051144801F0EDFA02
:10048C0008E0FB790F4A002122F81310FB790E4A81
:10049C000021D154FB790133FB71FB79022B7FF6E0
:1004AC007DAF00BF00BF0C37BD4690BD00080140BA
:1004BC00680000206C000020640000207000002008
:1004CC0080000020740000207C00002000100140FF
:1004DC0080B483B000AF0346FB71FB79022B01D9CA
:1004EC0000230BE0FB79084AD35C002B05D0FB7989
:1004FC00054A0021D154012300E0002318460C3793
:10050C00BD4680BC704700BF8000002080B483B023
:10051C0000AF0346FB71FB79022B01D9FF2307E0E7
:10052C00FB79064AD35C012B0CBF01230023DBB201
:10053C0018460C37BD4680BC704700BF7C000020BD
:10054C0080B500AF01224FF40071054801F06DFA3F
:10055C0001224FF48061024801F067FA00BF80BDB0
:10056C000008014080B500AF01224FF4006105483E
:10057C0001F05BFA01224FF48051024801F055FA68
:10058C0000BF80BD0008014080B500AFFFF7D8FF69
:10059C00114B1B78002B06D100224FF480610F48C1
:1005AC0001F043FA05E000224FF400710B4801F012
:1005BC003CFA094B1B78184600F03EF8064B1B78AA
:1005CC000133002B03F00103B8BF5B42DAB2024BDC
:1005DC001A7000BF80BD00BF8300002000080140DE
:1005EC0080B500AFFFF7BEFF114B1B78002B06D177
:1005FC0000224FF400610F4801F017FA05E00022C9
:10060C004FF480510B4801F010FA094B1B78184637
:10061C0000F080F9064B1B780133002B03F001032B
:10062C00B8BF5B42DAB2024B1A7000BF80BD00BF8C
:10063C00840000200008014080B584B000AF7860D1
:10064C0001220121AF4801F0F0F901220221AD484D
:10065C0001F0EBF901220421AA4801F0E6F901228C
:10066C000821A84801F0E1F901221021A54801F068
:10067C00DCF901222021A34801F0D7F90122402105
:10068C00A04801F0D2F97B68002B0BD19E4B1B6864
:10069C009E4A52F823309E4A82FB03129210DB17BB
:1006AC00D21A0FE0984B1B68984A52F82310984BBB
:1006BC0083FB01239A10CB17D21A13469B001344C9
:1006CC005B00CA1AFA60FB68092B00F2168101A2C2
:1006DC0052F823F009070008470700085D070008D7
:1006EC0091070008C5070008EF0700082308000859
:1006FC006108000881080008C908000800220121CF
:10070C00804801F092F9002202217E4801F08DF917
:10071C00002204217B4801F088F900220821794845
:10072C0001F083F900221021764801F07EF90022B5
:10073C002021744801F079F9E0E00022022171488F
:10074C0001F073F9002204216E4801F06EF9D5E036
:10075C00002201216B4801F068F90022022169484E
:10076C0001F063F900220821664801F05EF90022CD
:10077C001021644801F059F900224021614801F030
:10078C0054F9BBE0002201215E4801F04EF9002231
:10079C0002215C4801F049F900220421594801F07A
:1007AC0044F900220821574801F03FF9002240216A
:1007BC00544801F03AF9A1E000220221514801F01D
:1007CC0034F9002204214F4801F02FF90022202196
:1007DC004C4801F02AF9002240214A4801F025F941
:1007EC008CE000220121474801F01FF9002204216E
:1007FC00444801F01AF900220821424801F015F989
:10080C00002220213F4801F010F9002240213D48F0
:10081C0001F00BF972E0002201213A4801F005F9D0
:10082C0000220421374801F000F900220821354844
:10083C0001F0FBF800221021324801F0F6F80022FA
:10084C002021304801F0F1F8002240212D4801F020
:10085C00ECF853E0002201212A4801F0E6F80022CE
:10086C000221284801F0E1F800220421254801F07A
:10087C00DCF843E000220121224801F0D6F80022E6
:10088C000221204801F0D1F8002204211D4801F07A
:10089C00CCF8002208211B4801F0C7F800221021D7
:1008AC00184801F0C2F800222021164801F0BDF8CA
:1008BC0000224021134801F0B8F81FE0002201216A
:1008CC00104801F0B2F8002202210E4801F0ADF8F8
:1008DC00002204210B4801F0A8F800220821094845
:1008EC0001F0A3F800222021064801F09EF8002216
:1008FC004021044801F099F800E000BF00BF103718
:10090C00BD4680BD000C01408C000020180000206A
:10091C006766666680B584B000AF7860012280217E
:10092C00C64801F082F801224FF48071C34801F0EF
:10093C007CF801224FF40071C04801F076F80122D6
:10094C004FF48061BD4801F070F801224FF4006152
:10095C00BA4801F06AF801224FF48051B74801F00F
:10096C0064F801224FF40051B44801F05EF87B6842
:10097C00002B0DD1B24B1A68B24B83FB02139910AA
:10098C00D317C91A0B469B000B445B00D31AFB60B0
:10099C007B68012B08D1AA4B1B68AA4A82FB031265
:1009AC009210DB17D31AFB60FB68092B00F2408115
:1009BC0001A252F823F000BFED090008350A000827
:1009CC004F0A00088B0A0008C70A0008F90A000839
:1009DC00350B00087D0B0008A10B0008F50B000877
:1009EC0000228021954801F020F800224FF48071FC
:1009FC00924801F01AF800224FF400718F4801F070
:100A0C0014F800224FF480618C4801F00EF800229B
:100A1C004FF40061894801F008F800224FF480512E
:100A2C00864801F002F804E100224FF480718348FB
:100A3C0000F0FBFF00224FF40071804800F0F5FF3E
:100A4C00F7E0002280217D4800F0EFFF00224FF4F8
:100A5C0080717A4800F0E9FF00224FF480617748FA
:100A6C0000F0E3FF00224FF40061744800F0DDFF5A
:100A7C0000224FF40051714800F0D7FFD9E000225A
:100A8C0080216E4800F0D1FF00224FF480716B483A
:100A9C0000F0CBFF00224FF40071684800F0C5FF56
:100AAC0000224FF48061654800F0BFFF00224FF434
:100ABC000051624800F0B9FFBBE000224FF4807196
:100ACC005E4800F0B2FF00224FF400715B4800F06A
:100ADC00ACFF00224FF48051584800F0A6FF0022D2
:100AEC004FF40051554800F0A0FFA2E000228021F5
:100AFC00524800F09AFF00224FF400714F4800F06A
:100B0C0094FF00224FF480614C4800F08EFF0022CD
:100B1C004FF48051494800F088FF00224FF40051F7
:100B2C00464800F082FF84E000228021434800F018
:100B3C007CFF00224FF40071404800F076FF002249
:100B4C004FF480613D4800F070FF00224FF40061CB
:100B5C003A4800F06AFF00224FF48051374800F009
:100B6C0064FF00224FF40051344800F05EFF60E057
:100B7C0000228021314800F058FF00224FF4807190
:100B8C002E4800F052FF00224FF400712B4800F069
:100B9C004CFF4EE000228021284800F046FF002246
:100BAC004FF48071254800F040FF00224FF4007193
:100BBC00224800F03AFF00224FF480611F4800F0F9
:100BCC0034FF00224FF400611C4800F02EFF00227D
:100BDC004FF48051194800F028FF00224FF40051C7
:100BEC00164800F022FF24E000228021134800F078
:100BFC001CFF00224FF48071104800F016FF0022F9
:100C0C004FF400710D4800F010FF00224FF480618A
:100C1C000A4800F00AFF00224FF48051074800F008
:100C2C0004FF00224FF40051044800F0FEFE00E0E7
:100C3C0000BF00BF1037BD4680BD00BF000C014097
:100C4C00880000206766666680B483B000AF00231E
:100C5C007B601DE000233B6014E014497A68134666
:100C6C005B0013443A68134451F8231010487A6817
:100C7C0013465B0013443A68134440F823103B6856
:100C8C0001333B603B68022BE7DD7B6801337B6003
:100C9C007B68012BDEDD074B00221A60064B00221D
:100CAC001A6000BF0C37BD4680BC704700000020A6
:100CBC00180000208C0000209000002080B500AFB0
:100CCC00264B1B68264A52F82330002B08DD234B99
:100CDC001B68234A52F82320013A214941F823206A
:100CEC001E4B1B681E4A52F82330002B04DC1B4B96
:100CFC001B680133194A13601A4B1B68184A0333DB
:100D0C0052F82330002B0ADD164B1B681449DA1CF1
:100D1C0051F82220013A1249033341F82320114B98
:100D2C001B680F4A033352F82330002B04DC0D4BA5
:100D3C001B6801330B4A1360084B1B68022B01DD47
:100D4C00FFF782FF054B1B68184600F00DF8054BAA
:100D5C001B68184600F05CF800BF80BD8C000020BA
:100D6C00180000209000002080B582B000AF7860A1
:100D7C007B68022B09D07B68022B3FDC7B68002B45
:100D8C0029D07B68012B13D038E000224FF40041AE
:100D9C001D4800F04AFE01224FF480411A4800F031
:100DAC0044FE01224FF48071184800F03EFE26E00C
:100DBC0001224FF40041144800F037FE00224FF49A
:100DCC008041114800F031FE01224FF480710F4830
:100DDC0000F02BFE13E001224FF400410A4800F012
:100DEC0024FE01224FF48041074800F01EFE002231
:100DFC004FF48071054800F018FE00E000BF00BF02
:100E0C000837BD4680BD00BF000C01400008014002
:100E1C0080B582B000AF78607B68022B19D07B68FC
:100E2C00022B36DC7B68002B03D07B68012B20D097
:100E3C002FE000222021194800F0F7FD012240216B
:100E4C00164800F0F2FD01228021144800F0EDFD5F
:100E5C0020E001222021114800F0E7FD0022402172
:100E6C000E4800F0E2FD012280210C4800F0DDFD6F
:100E7C0010E001222021094800F0D7FD0122402179
:100E8C00064800F0D2FD00228021044800F0CDFD80
:100E9C0000E000BF00BF0837BD4680BD0008014020
:100EAC0080B582B000AF78607B681B68B3F1804F6F
:100EBC0005D100F065FAFFF76BFAFFF741F900BFB7
:100ECC000837BD4680BD000080B500AF00F0ACFA1D
:100EDC0000F080F800F006F900F0B8F8384801F09E
:100EEC0001FA642000F018FA4FF4FA7000F02EFAB0
:100EFC0001224FF40041334800F097FD01224FF4DA
:100F0C008041304800F091FD01224FF480712E4851
:100F1C0000F08BFD012220212B4800F086FD0122E0
:100F2C004021294800F081FD01228021264800F053
:100F3C007CFD00224FF40061234800F076FD002276
:100F4C004FF48051204800F070FD002201211D4813
:100F5C0000F06BFD002202211A4800F066FD002211
:100F6C000421184800F061FD00220821154800F00A
:100F7C005CFD00221021134800F057FD00222021B7
:100F8C00104800F052FD002240210E4800F04DFDAB
:100F9C000E4B1B68012B05D1FFF790FE4FF47A70B6
:100FAC0000F0BAF90A4B1B68012BF1D1FFF7ECFAF0
:100FBC00FFF716FB4FF4FA7000F0C8F9E8E700BF32
:100FCC00BC000020000C01400008014098000020EB
:100FDC00A000002080B590B000AF07F118032822C4
:100FEC000021184601F02EFD3B1D00221A605A60AC
:100FFC009A60DA601A610223BB610123BB62102381
:10100C00FB6200237B6307F11803184600F03EFDDA
:10101C000346002B01D000F0EBF80F237B6000237C
:10102C00BB600023FB6000233B6100237B613B1D05
:10103C000021184600F0AAFF0346002B01D000F057
:10104C00D7F800BF4037BD4680BD000080B586B0E4
:10105C0000AF07F1080300221A605A609A60DA6048
:10106C003B4600221A605A601D4B4FF080421A60BA
:10107C001B4B41F63F725A60194B00229A60184B79
:10108C000922DA60164B00221A61154B00229A6174
:10109C00134801F0D7F80346002B01D000F0A8F854
:1010AC004FF48053BB6007F1080319460C4801F05C
:1010BC0055FA0346002B01D000F09AF800233B6050
:1010CC0000237B603B461946054801F02DFC034686
:1010DC00002B01D000F08CF800BF1837BD4680BD46
:1010EC00BC00002080B588B000AF07F110030022CF
:1010FC001A605A609A60DA60394B9B69384A43F03F
:10110C0010039361364B9B6903F01003FB60FB6883
:10111C00334B9B69324A43F004039361304B9B6918
:10112C0003F00403BB60BB682D4B9B692C4A43F056
:10113C00080393612A4B9B6903F008037B607B686F
:10114C0000224FF40051274800F06FFC00224FF4AE
:10115C00FF51254800F069FC00224FF6FF7123482F
:10116C0000F063FC4FF400533B6101237B610023CF
:10117C00BB610223FB6107F110031946194800F00B
:10118C00C3FA4FF4FF533B6101237B610023BB6126
:10119C000223FB6107F110031946134800F0B4FA5F
:1011AC004FF6FF733B6101237B610023BB6102237C
:1011BC00FB6107F1100319460C4800F0A5FA4FF437
:1011CC0060433B6100237B610123BB6107F110038A
:1011DC001946054800F098FA00BF2037BD4680BD7F
:1011EC00001002400010014000080140000C0140BA
:1011FC0080B400AF72B600BFFEE7000080B485B0CB
:10120C0000AF154B9B69144A43F001039361124BD9
:10121C009B6903F00103BB60BB680F4BDB690E4A93
:10122C0043F08053D3610C4BDB6903F080537B603C
:10123C007B680A4B5B68FB60FB6823F0E063FB6038
:10124C00FB6843F08063FB60044AFB68536000BF9B
:10125C001437BD4680BC70470010024000000140AE
:10126C0080B584B000AF78607B681B68B3F1804FA9
:10127C0013D10C4BDB690B4A43F00103D361094BCF
:10128C00DB6903F00103FB60FB68002200211C20DA
:10129C0000F003FA1C2000F01CFA00BF1037BD460A
:1012AC0080BD00BF0010024080B400AFFEE780B4E8
:1012BC0000AFFEE780B400AFFEE780B400AFFEE7FE
:1012CC0080B400AFFEE780B400AF00BFBD4680BC69
:1012DC00704780B400AF00BFBD4680BC704780B47F
:1012EC0000AF00BFBD4680BC704780B500AF00F0BA
:1012FC00E1F800BF80BD000080B500AF024801F0EE
:10130C003DF800BF80BD00BFBC00002080B400AF22
:10131C0000BFBD4680BC704780B483B000AF78601E
:10132C00074B1B687A6892FBF3F3064A1360064B73
:10133C0000221A6000BF0C37BD4680BC704700BF4E
:10134C0034000020940000209800002080B483B06A
:10135C0000AF7860074B1B687A6892FBF3F3064A80
:10136C001360064B00221A6000BF0C37BD4680BCD0
:10137C00704700BF340000209C000020A00000201B
:10138C0080B400AF114B1B68002B0BDD0F4B1B689F
:10139C00013B0E4A13600D4B1B68002B02D10C4B0A
:1013AC0001221A600B4B1B68002B0BDD094B1B68D1
:1013BC00013B084A1360074B1B68002B02D1064BFC
:1013CC0001221A6000BFBD4680BC7047940000200B
:1013DC00980000209C000020A0000020FFF796FF42
:1013EC000B480C490C4A002302E0D458C450043377
:1013FC00C4188C42F9D3094A094C002301E013604C
:10140C000432A242FBD301F0F9FAFFF75DFD7047FD
:10141C000000002040000020A42A0008400000200A
:10142C0008010020FEE7000080B500AF084B1B68E8
:10143C00074A43F010031360032000F023F90F2038
:10144C0000F008F8FFF7DAFE0023184680BD00BF55
:10145C000020024080B582B000AF7860124B1A6851
:10146C00124B1B7819464FF47A73B3FBF1F3B2FBB2
:10147C00F3F3184600F03BF90346002B01D001238F
:10148C000EE07B680F2B0AD8002279684FF0FF30F2
:10149C0000F003F9064A7B681360002300E0012387
:1014AC0018460837BD4680BD300000203C000020A7
:1014BC003800002080B400AF054B1B781A46054B52
:1014CC001B681344034A136000BFBD4680BC7047C1
:1014DC003C0000200401002080B400AF024B1B68CC
:1014EC001846BD4680BC70470401002080B485B00E
:1014FC0000AF78607B6803F00703FB600C4BDB6884
:10150C00BB60BA684FF6FF031340BB60FB681A025E
:10151C00BB68134343F0BF6343F40033BB60044A1E
:10152C00BB68D36000BF1437BD4680BC704700BF9A
:10153C0000ED00E080B400AF044BDB681B0A03F045
:10154C0007031846BD4680BC704700BF00ED00E0A5
:10155C0080B483B000AF0346FB7197F90730002BC2
:10156C000BDBFB7903F01F02064997F907305B0987
:10157C00012000FA02F241F8232000BF0C37BD46CF
:10158C0080BC704700E100E080B483B000AF03463C
:10159C003960FB7197F90730002B0ADB3B68DAB234
:1015AC000C4997F907301201D2B20B4483F800238F
:1015BC000AE03B68DAB20849FB7903F00F03043BFD
:1015CC001201D2B20B441A7600BF0C37BD4680BC58
:1015DC00704700BF00E100E000ED00E080B489B08E
:1015EC0000AFF860B9607A60FB6803F00703FB6139
:1015FC00FB69C3F10703042B28BF0423BB61FB6900
:10160C000433062B02D9FB69033B00E000237B610A
:10161C004FF0FF32BB6902FA03F3DA43BB681A409E
:10162C007B699A404FF0FF317B6901FA03F3D94390
:10163C007B680B40134318462437BD4680BC70476B
:10164C0080B582B000AF78607B68013BB3F1807FDE
:10165C0001D301230FE00A4A7B68013B53600F2141
:10166C004FF0FF30FFF790FF054B00229A60044BC0
:10167C0007221A60002318460837BD4680BD00BFFC
:10168C0010E000E080B582B000AF78607868FFF7BA
:10169C002DFF00BF0837BD4680BD80B586B000AFBA
:1016AC000346B9607A60FB7300237B61FFF742FF4E
:1016BC0078617A68B9687869FFF790FF024697F904
:1016CC000F3011461846FFF75FFF00BF1837BD46B5
:1016DC0080BD80B582B000AF0346FB7197F907302F
:1016EC001846FFF735FF00BF0837BD4680BD80B5F3
:1016FC0082B000AF78607868FFF7A2FF0346184607
:10170C000837BD4680BD000080B48BB000AF786058
:10171C00396000237B6200233B6248E101227B6A33
:10172C0002FA03F3FB613B681B68FA691340BB6167
:10173C00BA69FB699A4240F037813B685B68A34AFF
:10174C0093425ED0A14A934275D8A14A934258D095
:10175C009F4A93426FD89F4A934252D09D4A9342DC
:10176C0069D89D4A93424CD09B4A934263D89B4A7A
:10177C00934246D0994A93425DD8122B2AD8122B09
:10178C0059D801A252F823F00F180008E9170008E5
:10179C00FB1700083D180008431800084318000800
:1017AC0043180008431800084318000843180008A1
:1017BC004318000843180008431800084318000891
:1017CC00431800084318000843180008F1170008D4
:1017DC0005180008824A934213D02CE03B68DB6862
:1017EC003B6229E03B68DB6804333B6224E03B68E6
:1017FC00DB6808333B621FE03B68DB680C333B6201
:10180C001AE03B689B68002B02D104233B6213E077
:10181C003B689B68012B05D108233B627B68FA6906
:10182C001A6109E008233B627B68FA695A6103E09C
:10183C0000233B6200E000BFBB69FF2B01D87B6833
:10184C0001E07B6804337B61BB69FF2B02D87B6AA8
:10185C009B0002E07B6A083B9B003B617B691A683A
:10186C000F213B6901FA03F3DB431A40396A3B69E8
:10187C0001FA03F31A437B691A603B685B6803F057
:10188C008053002B00F09080564B9B69554A43F0D7
:10189C0001039361534B9B6903F00103BB60BB686D
:1018AC00514A7B6A9B08023352F82330FB607B6AF7
:1018BC0003F003039B000F2202FA03F3DB43FA68E5
:1018CC001340FB607B68494A93420DD07B68484AC1
:1018DC00934207D07B68474A934201D1022304E02C
:1018EC00032302E0012300E000237A6A02F00302E2
:1018FC0092009340FA681343FB603B497B6A9B0858
:10190C000233FA6841F823203B685B6803F48013C8
:10191C00002B06D0384B9A683749BB6913438B6050
:10192C0006E0354B9A68BB69DB43334913408B6047
:10193C003B685B6803F40013002B06D02E4BDA686F
:10194C002D49BB691343CB6006E02B4BDA68BB69AE
:10195C00DB4329491340CB603B685B6803F40033DD
:10196C00002B06D0244B5A682349BB6913434B60A8
:10197C0006E0214B5A68BB69DB431F4913404B609F
:10198C003B685B6803F48033002B06D01A4B1A6853
:10199C001949BB6913430B6006E0174B1A68BB6906
:1019AC00DB43154913400B607B6A01337B623B6858
:1019BC001A687B6A22FA03F3002B7FF4AFAE00BFE8
:1019CC0000BF2C37BD4680BC704700BF00003210F2
:1019DC000000311000002210000021100000121035
:1019EC0000001110001002400000014000080140EE
:1019FC00000C0140001001400004014080B485B08F
:101A0C0000AF78600B467B807B689A687B881340BC
:101A1C00002B02D00123FB7301E00023FB73FB7B43
:101A2C0018461437BD4680BC704780B483B000AFF5
:101A3C0078600B467B8013467B707B78002B03D041
:101A4C007A887B681A6103E07B881A047B681A61C8
:101A5C0000BF0C37BD4680BC704780B485B000AF6A
:101A6C0078600B467B807B68DB68FB607A88FB6860
:101A7C0013401A04FB68D9437B880B401A437B68DC
:101A8C001A6100BF1437BD4680BC704780B586B064
:101A9C0000AF78607B68002B01D101236CE27B687E
:101AAC001B6803F00103002B00F08780924B5B68EE
:101ABC0003F00C03042B0CD08F4B5B6803F00C036E
:101ACC00082B12D18C4B5B6803F48033B3F5803F49
:101ADC000BD1894B1B6803F40033002B6CD07B6853
:101AEC005B68002B68D1012346E27B685B68B3F529
:101AFC00803F06D1804B1B687F4A43F480331360D0
:101B0C002EE07B685B68002B0CD17B4B1B687A4A00
:101B1C0023F480331360784B1B68774A23F48023BB
:101B2C0013601DE07B685B68B3F5A02F0CD1724B82
:101B3C001B68714A43F4802313606F4B1B686E4A19
:101B4C0043F4803313600BE06B4B1B686A4A23F43D
:101B5C0080331360684B1B68674A23F4802313603F
:101B6C007B685B68002B13D0FFF7B6FC386108E08C
:101B7C00FFF7B2FC02463B69D31A642B01D903234D
:101B8C00FAE15D4B1B6803F40033002BF0D014E03A
:101B9C00FFF7A2FC386108E0FFF79EFC02463B69A8
:101BAC00D31A642B01D90323E6E1534B1B6803F4CE
:101BBC000033002BF0D100E000BF7B681B6803F002
:101BCC000203002B63D04C4B5B6803F00C03002B1F
:101BDC000BD0494B5B6803F00C03082B1CD1464B14
:101BEC005B6803F48033002B16D1434B1B6803F066
:101BFC000203002B05D07B681B69012B01D001234C
:101C0C00BAE13D4B1B6823F0F8027B685B69DB0093
:101C1C00394913430B603AE07B681B69002B20D0D9
:101C2C00364B01221A60FFF757FC386108E0FFF7CA
:101C3C0053FC02463B69D31A022B01D903239BE1C7
:101C4C002D4B1B6803F00203002BF0D02A4B1B68B2
:101C5C0023F0F8027B685B69DB00274913430B60B8
:101C6C0015E0264B00221A60FFF736FC386108E0BD
:101C7C00FFF732FC02463B69D31A022B01D903232E
:101C8C007AE11D4B1B6803F00203002BF0D17B683B
:101C9C001B6803F00803002B3AD07B689B69002B70
:101CAC0019D0174B01221A60FFF716FC386108E0B7
:101CBC00FFF712FC02463B69D31A022B01D903230E
:101CCC005AE10D4B5B6A03F00203002BF0D00120AC
:101CDC0000F09AFA1CE00A4B00221A60FFF7FCFB9A
:101CEC0038610FE0FFF7F8FB02463B69D31A022B71
:101CFC0008D9032340E100BF00100240000042421B
:101D0C00800442429E4B5B6A03F00203002BE9D134
:101D1C007B681B6803F00403002B00F0A6800023F3
:101D2C00FB75974BDB6903F08053002B0DD1944B63
:101D3C00DB69934A43F08053D361914BDB6903F029
:101D4C008053BB60BB680123FB758E4B1B6803F48F
:101D5C008073002B18D18B4B1B688A4A43F4807319
:101D6C001360FFF7B9FB386108E0FFF7B5FB0246DB
:101D7C003B69D31A642B01D90323FDE0814B1B680B
:101D8C0003F48073002BF0D07B68DB68012B06D149
:101D9C007B4B1B6A7A4A43F0010313622DE07B688C
:101DAC00DB68002B0CD1764B1B6A754A23F00103C0
:101DBC001362734B1B6A724A23F0040313621CE018
:101DCC007B68DB68052B0CD16D4B1B6A6C4A43F0AE
:101DDC00040313626A4B1B6A694A43F001031362E2
:101DEC000BE0674B1B6A664A23F001031362644BDA
:101DFC001B6A634A23F0040313627B68DB68002BC5
:101E0C0015D0FFF769FB38610AE0FFF765FB024666
:101E1C003B69D31A41F28832934201D90323ABE0D8
:101E2C00574B1B6A03F00203002BEED014E0FFF7B4
:101E3C0053FB38610AE0FFF74FFB02463B69D31AAC
:101E4C0041F28832934201D9032395E04C4B1B6A33
:101E5C0003F00203002BEED1FB7D012B05D1484B87
:101E6C00DB69474A23F08053D3617B68DB69002B25
:101E7C0000F08180424B5B6803F00C03082B61D0AF
:101E8C007B68DB69022B46D13F4B00221A60FFF7BF
:101E9C0023FB386108E0FFF71FFB02463B69D31AAE
:101EAC00022B01D9032367E0354B1B6803F0007349
:101EBC00002BF0D17B681B6AB3F5803F08D1304B07
:101ECC005B6823F400327B689B682D4913434B609D
:101EDC002B4B5B6823F474127B68196A7B685B6A12
:101EEC000B43274913434B60274B01221A60FFF722
:101EFC00F3FA386108E0FFF7EFFA02463B69D31AB0
:101F0C00022B01D9032337E01D4B1B6803F0007330
:101F1C00002BF0D02FE01C4B00221A60FFF7DCFAEC
:101F2C00386108E0FFF7D8FA02463B69D31A022B56
:101F3C0001D9032320E0124B1B6803F00073002B24
:101F4C00F0D118E07B68DB69012B01D1012313E090
:101F5C000B4B5B68FB60FB6803F480327B681B6A8D
:101F6C009A4206D1FB6803F470127B685B6A9A4252
:101F7C0001D0012300E0002318461837BD4680BD70
:101F8C0000100240007000406000424280B584B0F6
:101F9C0000AF786039607B68002B01D10123D0E061
:101FAC006A4B1B6803F007033A689A4210D9674BD7
:101FBC001B6823F0070265493B6813430B60634BB6
:101FCC001B6803F007033A689A4201D00123B8E07A
:101FDC007B681B6803F00203002B20D07B681B6816
:101FEC0003F00403002B05D0594B5B68584A43F4AB
:101FFC00E06353607B681B6803F00803002B05D07B
:10200C00534B5B68524A43F460535360504B5B68CC
:10201C0023F0F0027B689B684D4913434B607B684F
:10202C001B6803F00103002B40D07B685B68012B1D
:10203C0007D1474B1B6803F40033002B15D1012348
:10204C007FE07B685B68022B07D1414B1B6803F078
:10205C000073002B09D1012373E03D4B1B6803F087
:10206C000203002B01D101236BE0394B5B6823F099
:10207C0003027B685B68364913434B60FFF72CFA0D
:10208C00F8600AE0FFF728FA0246FB68D31A41F21F
:10209C008832934201D9032353E02D4B5B6803F044
:1020AC000C027B685B689B009A42EBD1274B1B6848
:1020BC0003F007033A689A4210D2244B1B6823F0B2
:1020CC00070222493B6813430B60204B1B6803F04B
:1020DC0007033A689A4201D0012332E07B681B68FF
:1020EC0003F00403002B08D0194B5B6823F4E06267
:1020FC007B68DB68164913434B607B681B6803F0F5
:10210C000803002B09D0124B5B6823F460527B68E8
:10211C001B69DB000E4913434B6000F021F80246AB
:10212C000B4B5B681B0903F00F030A49CB5C22FACB
:10213C0003F3094A1360094B1B681846FFF78AF929
:10214C00002318461037BD4680BD00BF002002405A
:10215C0000100240782A00083000002038000020CF
:10216C0080B487B000AF0023FB600023BB6000236A
:10217C007B6100237B6000233B611E4B5B68FB6033
:10218C00FB6803F00C03042B02D0082B03D027E0D0
:10219C00194B3B6127E0FB689B0C03F00F03174ABC
:1021AC00D35C7B60FB6803F48033002B10D0114BA5
:1021BC005B685B0C03F00103114AD35CBB607B686A
:1021CC000D4A02FB03F2BB68B2FBF3F37B6104E044
:1021DC007B680C4A02FB03F37B617B693B6102E089
:1021EC00054B3B6100BF3B6918461C37BD4680BCA4
:1021FC00704700BF0010024000127A00882A0008C5
:10220C00982A000800093D0080B485B000AF7860C2
:10221C000A4B1B680A4AA2FB03235B0A7A6802FB7F
:10222C0003F3FB6000BFFB685A1EFA60002BF9D168
:10223C0000BF00BF1437BD4680BC70473000002083
:10224C00D34D621080B582B000AF78607B68002BF4
:10225C0001D1012341E07B6893F83D30DBB2002BC8
:10226C0006D17B68002283F83C207868FEF7F8FFE3
:10227C007B68022283F83D207B681A687B680433F4
:10228C001946104600F056FA7B68012283F8462066
:10229C007B68012283F83E207B68012283F83F2073
:1022AC007B68012283F840207B68012283F841205F
:1022BC007B68012283F842207B68012283F843204B
:1022CC007B68012283F844207B68012283F8452037
:1022DC007B68012283F83D20002318460837BD4651
:1022EC0080BD000080B485B000AF78607B6893F847
:1022FC003D30DBB2012B01D0012335E07B6802229B
:10230C0083F83D207B681B68DA687B681B6842F0A9
:10231C000102DA607B681B68164A934209D07B681D
:10232C001B68B3F1804F04D07B681B68124A934240
:10233C0011D17B681B689B6803F00703FB60FB688B
:10234C00062B10D07B681B681A687B681B6842F0F0
:10235C0001021A6007E07B681B681A687B681B68BF
:10236C0042F001021A60002318461437BD4680BCA7
:10237C00704700BF002C01400004004080B584B0C1
:10238C0000AF78607B681B68DB68FB607B681B6850
:10239C001B69BB60BB6803F00203002B20D0FB68F9
:1023AC0003F00203002B1BD07B681B686FF002024A
:1023BC001A617B6801221A777B681B689B6903F0A2
:1023CC000303002B03D0786800F098F905E07868D7
:1023DC0000F08BF9786800F09AF97B6800221A7784
:1023EC00BB6803F00403002B20D0FB6803F004034C
:1023FC00002B1BD07B681B686FF004021A617B6892
:10240C0002221A777B681B689B6903F44073002BCC
:10241C0003D0786800F072F905E0786800F065F98F
:10242C00786800F074F97B6800221A77BB6803F0B7
:10243C000803002B20D0FB6803F00803002B1BD0F3
:10244C007B681B686FF008021A617B6804221A779C
:10245C007B681B68DB6903F00303002B03D07868EF
:10246C0000F04CF905E0786800F03FF9786800F06E
:10247C004EF97B6800221A77BB6803F01003002B1F
:10248C0020D0FB6803F01003002B1BD07B681B686B
:10249C006FF010021A617B6808221A777B681B6840
:1024AC00DB6903F44073002B03D0786800F026F945
:1024BC0005E0786800F019F9786800F028F97B6875
:1024CC0000221A77BB6803F00103002B0CD0FB68C9
:1024DC0003F00103002B07D07B681B686FF001022F
:1024EC001A617868FEF7DCFCBB6803F08003002BF4
:1024FC000CD0FB6803F08003002B07D07B681B68B3
:10250C006FF080021A61786800F06FFABB6803F014
:10251C004003002B0CD0FB6803F04003002B07D0CA
:10252C007B681B686FF040021A61786800F0F8F85D
:10253C00BB6803F02003002B0CD0FB6803F02003D6
:10254C00002B07D07B681B686FF020021A6178683B
:10255C0000F042FA00BF1037BD4680BD80B584B094
:10256C0000AF786039600023FB737B6893F83C30D4
:10257C00012B01D10223B4E07B68012283F83C20BB
:10258C007B68022283F83D207B681B689B68BB60DC
:10259C00BB6823F07703BB60BB6823F47F43BB604D
:1025AC007B681B68BA689A603B681B68B3F5005F70
:1025BC003ED0B3F5005F00F28780B3F5805F00F08A
:1025CC008680B3F5805F7FD8702B1AD0702B7BD8A8
:1025DC00602B50D0602B77D8502B3CD0502B73D81D
:1025EC00402B58D0402B6FD8302B64D0302B6BD86D
:1025FC00202B60D0202B67D8002B5CD0102B5AD00E
:10260C0062E07B6818683B6899683B685A683B686D
:10261C00DB6800F06AF97B681B689B68BB60BB6871
:10262C0043F07703BB607B681B68BA689A604FE025
:10263C007B6818683B6899683B685A683B68DB683C
:10264C0000F053F97B681B689A687B681B6842F43E
:10265C0080429A603CE07B6818683B6859683B682C
:10266C00DB681A4600F0CAF87B681B6850211846D4
:10267C0000F021F92CE07B6818683B6859683B68CE
:10268C00DB681A4600F0E8F87B681B686021184686
:10269C0000F011F91CE07B6818683B6859683B68CE
:1026AC00DB681A4600F0AAF87B681B6840211846C4
:1026BC0000F001F90CE07B681A683B681B6819464E
:1026CC00104600F0F8F803E00123FB7300E000BFB4
:1026DC007B68012283F83D207B68002283F83C2034
:1026EC00FB7B18461037BD4680BD80B483B000AF6D
:1026FC00786000BF0C37BD4680BC704780B483B097
:10270C0000AF786000BF0C37BD4680BC704780B40A
:10271C0083B000AF786000BF0C37BD4680BC7047FB
:10272C0080B483B000AF786000BF0C37BD4680BC6E
:10273C007047000080B485B000AF786039607B686A
:10274C001B68FB607B682B4A934207D07B68B3F114
:10275C00804F03D07B68284A934208D1FB6823F052
:10276C007003FB603B685B68FA681343FB607B6833
:10277C00204A934207D07B68B3F1804F03D07B682B
:10278C001D4A934208D1FB6823F44073FB603B68FD
:10279C00DB68FA681343FB60FB6823F080023B683C
:1027AC005B691343FB607B68FA681A603B689A6844
:1027BC007B68DA623B681A687B689A627B680D4AB0
:1027CC00934203D13B681A697B681A637B680122C8
:1027DC005A617B681B6903F00103002B05D07B68F1
:1027EC001B6923F001027B681A6100BF1437BD46D8
:1027FC0080BC7047002C01400004004080B487B0BE
:10280C0000AFF860B9607A60FB681B6A7B61FB689B
:10281C001B6A23F00102FB681A62FB689B693B612F
:10282C003B6923F0F0033B617B681B013A6913435E
:10283C003B617B6923F00A037B617A69BB681343B4
:10284C007B61FB683A699A61FB687A691A6200BF1E
:10285C001C37BD4680BC704780B487B000AFF860B1
:10286C00B9607A60FB681B6A7B61FB681B6A23F0AA
:10287C001002FB681A62FB689B693B613B6923F49D
:10288C0070433B617B681B033A6913433B617B6973
:10289C0023F0A0037B61BB681B017A6913437B6146
:1028AC00FB683A699A61FB687A691A6200BF1C3747
:1028BC00BD4680BC704780B485B000AF786039608D
:1028CC007B689B68FB60FB6823F07003FB603A68D5
:1028DC00FB68134343F00703FB607B68FA689A605C
:1028EC0000BF1437BD4680BC704780B487B000AFC2
:1028FC00F860B9607A603B60FB689B687B617B69C0
:10290C0023F47F437B613B681A027B681A43BB68E4
:10291C0013437A6913437B61FB687A699A6000BF41
:10292C001C37BD4680BC704780B485B000AF786062
:10293C0039607B6893F83C30012B01D1022341E0D4
:10294C007B68012283F83C207B68022283F83D20BF
:10295C007B681B685B68FB607B681B689B68BB6063
:10296C00FB6823F07003FB603B681B68FA68134339
:10297C00FB607B681B68FA685A607B681B68144AAA
:10298C00934209D07B681B68B3F1804F04D07B68FD
:10299C001B68104A93420CD1BB6823F08003BB60C8
:1029AC003B685B68BA681343BB607B681B68BA689A
:1029BC009A607B68012283F83D207B68002283F8B3
:1029CC003C20002318461437BD4680BC704700BF1E
:1029DC00002C01400004004080B483B000AF78604C
:1029EC0000BF0C37BD4680BC704780B483B000AFCD
:1029FC00786000BF0C37BD4680BC704770B50026B0
:102A0C000C4D0D4C641BA410A64209D100F022F809
:102A1C0000260A4D0A4C641BA410A64205D170BDB9
:102A2C0055F8043B98470136EEE755F8043B9847B8
:102A3C000136F2E79C2A00089C2A00089C2A000810
:102A4C00A02A000803460244934200D1704703F8C1
:102A5C00011BF9E7F8B500BFF8BC08BC9E467047EF
:0C2A6C00F8B500BFF8BC08BC9E467047DF
:102A78000000000000000000010203040607080926
:102A880002030405060708090A0B0C0D0E0F1010A7
:042A98000102000037
:042A9C0031010008FC
:042AA0000D0100081C
:102AA4000300000001000000040000000400000016
:102AB400030000000100000003000000010000000A
:102AC40004000000040000000300000001000000F6
:102AD40000127A000A00000010000000010000004B
:04000005080013E9F3
:00000001FF
